:020000041003E7
:1090200008B4024B9C4608BC6047C046590100206A
:1090300008B4024B9C4608BC6047C046550500205A
:1090400008B4024B9C4608BC6047C046910C002007
:1090500008B4024B9C4608BC6047C046450100204E
:1090600008B4024B9C4608BC6047C046ED10002087
:1090700008B4024B9C4608BC6047C046A5160020B9
:1090800008B4024B9C4608BC6047C046AD160020A1
:1090900008B4024B9C4608BC6047C046E719002054
:1090A00008B4024B9C4608BC6047C0460919002022
:1090B00008B4024B9C4608BC6047C0462B140020F5
:1090C00008B4024B9C4608BC6047C0463D1D0020CA
:1090D00008B4024B9C4608BC6047C0461D190020DE
:1090E00008B4024B9C4608BC6047C046CB23002016
:1090F00008B4024B9C4608BC6047C046EF160020EF
:1091000008B4024B9C4608BC6047C0469D14002032
:1091100008B4024B9C4608BC6047C046BD05002011
:1091200008B4024B9C4608BC6047C046CB140020E4
:1091300008B4024B9C4608BC6047C046E3140020BC
:1091400008B4024B9C4608BC6047C046DD0B0020BB
:1091500008B4024B9C4608BC6047C046711700200B
:1091600008B4024B9C4608BC6047C0464517002027
:1091700008B4024B9C4608BC6047C046FB17002061
:1091800008B4024B9C4608BC6047C046DF1700206D
:1091900008B4024B9C4608BC6047C046DF1600205E
:1091A00008B4024B9C4608BC6047C04633170020F9
:1091B00008B4024B9C4608BC6047C046011700201B
:1091C00008B4024B9C4608BC6047C046AF1700205D
:1091D00008B4024B9C4608BC6047C04627180020D4
:1091E00008B4024B9C4608BC6047C046CF1600201E
:1091F00008B4024B9C4608BC6047C046970A002052
:1092000008B4024B9C4608BC6047C046B516002017
:1092100008B4024B9C4608BC6047C0468B0A00203D
:1092200008B4024B9C4608BC6047C046E1180020C9
:1092300008B4024B9C4608BC6047C0469519002004
:1092400008B4024B9C4608BC6047C0464919002040
:1092500008B4024B9C4608BC6047C046AD190020CC
:1092600008B4024B9C4608BC6047C04679190020F0
:1092700070B50124C206D20E944080281FDA401136
:1092800085009D4E80204001326852191018002937
:109290000BD0FFF7CDFE80214901326852195118D9
:1092A00004432000FFF7DCFE70BDFFF7C1FE802104
:1092B0004901326852195118A043FFF7D1FE70BD21
:1092C000F8B51022002110028B4B1B681818FFF70D
:1092D000BFFE002405E001212000C0B2FFF708FF17
:1092E000641C042CF7D300260EE001218348824A37
:1092F0001268D219105C22008018C0B2FFF7F8FE85
:10930000641CAC42F1D3761C7B4800687C49415C0C
:109310008E421DD271008F197F00C0197749415CC0
:10932000FF29F0D077494018FFF782FE002801D1CD
:1093300001250BE0734870490968C9190818FFF73F
:1093400077FE1F3005002D0B6D1CEDB20024D8E711
:10935000F1BDF7B584B01F0005AE3000401CFFF72B
:1093600067FE04002334032084436748844226D2E6
:109370000498664940180290042301AA014600207F
:10938000FFF75EFE00281AD101210D20FFF7A8FE8D
:10939000594D0C98002818D10321601EFFF7B0FE2C
:1093A0000120FFF7B5FE23002A6804990020FFF78B
:1093B00047FE04000020FFF7ABFE002C01D0A348BD
:1093C00066E0FFF7ADFE009018E03000401CFFF7AC
:1093D0002FFE03903000401CFFF72AFE0399621A0B
:1093E000203AFF212B6818182030FFF731FE2200A9
:1093F00092B229680320FFF79BFE0090019800219C
:10940000C943884230D1FFB2002F01D090483FE0DD
:1094100004236A4602990020FFF792FE002801D03B
:109420008C4C34E0042301AA02990020FFF708FEC7
:1094300000280ED10198009988420AD1864C8748AD
:1094400031782A6851180818017801220A430270FD
:109450001DE0804C814831782A685118081801783D
:10946000FE220A40027012E07C4831782A685118C6
:1094700008180178009A019B9A4204D0784CFE2289
:109480000A40027003E0002401220A430270200017
:1094900007B0F0BD38B50C007249451804236A4680
:1094A00029000020FFF7CCFD002801D06E4832BD16
:1094B0006E49009A8A421ED01046C2431AD1002C2F
:1094C00001D06B4832BD009104236A462900002078
:1094D000FFF736FE002801D0664832BD04236A46F5
:1094E00029000020FFF7ACFD002801D1624832BD01
:1094F000604832BDBE4832BD60DE012083110000ED
:10950000101000008511000001100000F80F00008D
:10951000F0B585B004240020050069460871FFF706
:10952000A7FDB4480068B449415C4A005218520093
:10953000FF21B24BC018FFF78BFD1C222946B04813
:10954000AC4B1B681818FFF783FD26003003029010
:109550000522FF2103A8FFF77BFD052303AA02993B
:109560000020FFF76DFD03AF3878FFF7F1FD00280D
:1095700061D03800401CFFF75BFD01003878FFF731
:10958000EFFD002857D0387801280CD1002102982F
:10959000FFF7EEFD3749884202D0891C884202D18C
:1095A000684601210171642E1BDB2C483978914AF1
:1095B0001268511808180178FE220A4002706846A5
:1095C000007900280DD000200090034603A803C8AE
:1095D0000A0001000298FFF7D3FD00210298FFF76F
:1095E000C7FD844800688449415CEDB28D420BD2CE
:1095F00003A90CC981496E007619760080194018BC
:109600002100FFF7C5FD6D1C3800401CFFF710FD61
:10961000002801D1012006E07F1C3800FFF708FD7B
:109620001F30000B401C0100C9B2002901D02418D2
:1096300002E0641C00E0641CE4B2802C85DBFFF7D0
:10964000AFFDFFF71DFD002005B0F0BD11000900C2
:10965000130009001200090014000900D30F0000D4
:1096600010000900FC0F00000C0009004749534D91
:109670000E0009000D0009000F000900F2B50424D6
:109680000027002801D113270BE0402802D16424D1
:109690007F2706E0802804D114243B2701E0641CC6
:1096A000E4B2A7421EDB0025260000E0761C6846D7
:1096B0000078F6B2310002199142F0DA0818401E23
:1096C0008742ECDB3000FFF773FD002801D06D1CF2
:1096D00001E0002DE3D168460078EDB28542E5D186
:1096E0002000F2BDFF20F2BDF0B587B005000E00EE
:1096F000002004000190C0272F40FFF7B9FC28008C
:10970000FFF75EFD012D04D0690604D56A498E423B
:1097100001D36A486AE0FF283BD130001F300100C6
:10972000090B491CC9B23800FFF752FD0700FF2F93
:109730002CD0042F2ADB3200290002A8FFF750FDAD
:109740003D0305212800FFF753FD052302AA290048
:109750002046FFF7F5FC274D00E0641C28682649E9
:10976000415CE4B28C423ED26100091949004018C4
:10977000A049415CFF29F0D102A90CC939001F4C56
:109780000019FFF705FDFFF70BFD2CE09A4801904B
:1097900029E041000C186400164D98482968091901
:1097A0000818FFF745FCB0421DD2954886421AD2F0
:1097B0002868071904A88F4979180522FFF780FC4B
:1097C00000200090012304A803C80A0001000B48F0
:1097D000385C0003FFF7D4FC884829680919091888
:1097E0003000FFF73DFCFFF74BFC019807B0F0BDE0
:1097F0000B00090060DE0120101000008311000042
:10980000131000007CB50D00FFF7DAFC0400FFF731
:10981000F7FC002801D1294876BDFFF729FC60003C
:1098200004196400A84E774831680919085CFF28BC
:1098300018D0FF2211466846FFF7D2FC002D06D053
:10984000704831680919085C0003FFF7E1FC6846BD
:109850000CC8FF216B4835682C192018FFF798FCBD
:10986000FFF79EFCFFF70CFC002076BD70B50C00E6
:109870001500FFF7A5FC0600FFF7C2FC002801D188
:109880005D4870BD5F487100891949008E4A1268B1
:10989000511808180178002901D0FF2901D19F48EB
:1098A00070BD002C00D02060002D02D00078000395
:1098B0002860002070BD0000D90F000001000900E1
:1098C000F5B585B00D001F00104600281CD0002FF4
:1098D0001AD0E8199249884216D27B4C91482168E7
:1098E000085C012801D1904882E002AA01A96846DB
:1098F000007DFFF795FC06007AD10198801CFFF7E8
:1099000097FBE919884201D2844871E00198801CD4
:10991000FFF78EFB1F30000B401CC0B2012801D0A6
:10992000BC4865E0FFF7A4FB7E48216801220A5489
:109930001203FF212068FFF78BFB05220199491CC8
:109940002068FFF76DFB0198801CFFF771FB030097
:1099500022682032029920310020FFF771FB002895
:1099600001D0AD4E39E03A00069920684019203008
:10997000FFF756FB0298FFF74BFC002801D0A74EDB
:109980002BE00198801CFFF753FB03002033226873
:1099900002990020FFF7D4FB060001D0A04E1CE086
:1099A0006846007D400618D503A80199491C052288
:1099B000FFF786FB01200090002303A803C80A00DC
:1099C00001000298FFF7DCFB00210298FFF7D0FBB3
:1099D00006009448864200D10026524821680022A1
:1099E0000A54FFF74DFB6846007DFFF721FC30006D
:1099F00007B0F0BD841100000300090085110000CC
:109A0000D80F000083110000F7B586B01F00104684
:109A1000002806D0002F04D00846C01940498842CB
:109A200001D33E484DE001AA02A96846007EFFF737
:109A3000F7FB060045D1244C3A482168085C012810
:109A400001D139483DE0FFF713FB01253548216876
:109A50002A000A546846007E40061FD51146019828
:109A6000FFF786FB060025D16F486946097E22680C
:109A70005118085C284211D103A80299491C0522FB
:109A8000FFF71EFB002000902B4603A803C80A0026
:109A900001000198FFF774FB06000BD13B00089A08
:109AA00001980799411820310020FFF7C9FA0600F4
:109AB00000D0594E1B48216800220A54FFF7E0FAF3
:109AC000300009B0F0BD000060DE01201CB50400CC
:109AD00001AA6946FFF7A4FB00281ED12000FFF76A
:109AE000AFFB040019D00098801CFFF7A1FA2100F9
:109AF0000D31CA4A101AFFF7B3FA210009310020CC
:109B0000FFF7AEFA0098801CFFF792FA641D21005F
:109B1000019A10182030FFF7A3FA13BD01000900C5
:109B200001100000111000000A000900F0B587B014
:109B3000050002AA01A9FFF773FB002868D12800DD
:109B4000FFF77EFB040007D10020FFF779FB04003C
:109B500001D101205CE025700198801CFFF768FAB4
:109B600021000D31AD4A101AFFF77AFA21000931B0
:109B70000020FFF775FA0198801CFFF759FA029947
:109B80000D18203504AB03AA69462800FFF760FBD7
:109B900000283DD10099A24A914239D120000930D4
:109BA000FFF746FA21000931401CFFF759FA20005F
:109BB0000D30FFF73DFA060004AF3800401CFFF7F8
:109BC00037FA21000D31283003229043301A14381F
:109BD000FFF746FA7F1C3800FFF72AFA2100491CDC
:109BE0002830032290431430FFF73AFA2100491D30
:109BF0002800FFF735FA2000401CFFF719FA2D184E
:109C000004AB03AA69462800FFF722FB0028C1D055
:109C100007B0F0BD040009000700090005000900B5
:109C2000060009000F000900D30F000080B5FFF700
:109C300017FB4020FFF72CFA4120FFF729FA4220BA
:109C4000FFF726FA5020FFF723FA5120FFF720FAFA
:109C50004A20FFF71DFA4B20FFF71AFA4C20FFF7B6
:109C600017FA4D20FFF714FA4E20FFF711FA4F2094
:109C7000FFF70EFA4720FFF70BFA01BDF3B589B0E5
:109C8000150067480590B548006800902800283006
:109C900003218843143007000A99002904D0002DBD
:109CA00002D0AF49884201D3AE48B4E009A8007899
:109CB000FFF7C6FA040001D10120ACE003AA01A914
:109CC00009A80078FFF7ACFA060000D0A3E0200056
:109CD0000D30FFF7ADF9B84216D20198801CFFF79E
:109CE000A7F921000D314D4A101AFFF7B9F90934CF
:109CF00021000020FFF7B4F92B000A9A002109A8DF
:109D00000078FFF7CDF986E0FFF7B2F93A00FF21BE
:109D10000098FFF79DF9042205A90098FFF780F944
:109D2000009E361D20000930FFF782F9401C69466D
:109D30000874012204A93000FFF772F9761C06A905
:109D400009A800780870491C38003938FFF788F9ED
:109D5000052206A93000FFF763F92A000A99203688
:109D60003000FFF75DF97D480068C0191438009095
:109D700001210D20FFF7B4F93A00143A92B2774866
:109D800001680320FFF7D4F90290042202A9009889
:109D9000FFF746F920000930FFF74AF9002807D1FC
:109DA0000198801CFFF744F903990D18203509E04C
:109DB0002000401DFFF73CF905002000401CFFF784
:109DC00037F92D1820000930FFF732F92100093149
:109DD000401CFFF745F920000D30FFF729F921005D
:109DE0000D31C01BFFF73CF92100491D2800FFF78A
:109DF00037F9641C21003800FFF732F93B0057485F
:109E0000026829000020FFF79BF9060000D08A4E67
:109E1000FFF736F930000BB0F0BD0000D80F00009E
:109E200044304853FFB583B04C4800680090059813
:109E3000002809D00698002806D02830032188433E
:109E400014304749884201D3464885E06846007B84
:109E5000FFF7F6F9060001D101207DE002AA01A971
:109E60006846007BFFF7DCF9040033D1300009308D
:109E7000FFF7DEF8002807D1069B059A049968468B
:109E8000007BFFF725F967E0FFF7F2F83000401D8F
:109E9000FFF7CEF8070030000930FFF7C9F80500DA
:109EA0000AE03000401DFFF7C3F807003000401CF7
:109EB000FFF7BEF83F1A6D1E002D40D03000401C49
:109EC000FFF7B6F80300009A39000020FFF7B8F852
:109ED000040001D020003FE001210D20FFF700F930
:109EE0003000401CFFF7A4F80200143A92B2009927
:109EF0000320FFF71DF907003000401CFFF798F81A
:109F0000009908181438FFF7D3F88742C9D1009E8A
:109F1000761D3000401CFFF78BF80499069A8918CB
:109F2000884205D2761C3000FFF782F80499421A65
:109F300004980099091825310598FFF771F8002D4C
:109F400007D1069B059A04996846007BFFF7C0F885
:109F50000400FFF795F8200007B0F0BD60DE012097
:109F60000110000001000900FDB586B00E006A4630
:109F700002A93E20FFF754F9050017D000240094F1
:109F800000E0641C0A2C0ED2042301AA20032B49F2
:109F900041180020FFF754F8019829498842F0D170
:109FA000241D200300900098002842D0052303AA16
:109FB00000990020FFF744F805003AD103AF3800BC
:109FC000401CFFF735F81F4C030022680099203130
:109FD0000020FFF735F805002BD12068FFF768F85F
:109FE0001749884201D0184824E0184D7F1C3800DA
:109FF000FFF71EF807003F1F2468241D20786946DC
:10A00000097E884207D1089AA11920310798FFF7E5
:10A0100007F800250DE02000401CFFF709F83F1A63
:10A02000203F2000401CFFF703F824182034012FA4
:10A03000E4DA280009B0F0BD060009002040000065
:10A0400050554B4260DE0120070009001500090051
:10A0500008B4024B9C4608BC6047C0464B930020A6
:10A0600008B4024B9C4608BC6047C0461914002047
:10A0700008B4024B9C4608BC6047C046038B0020D6
:10A0800008B4024B9C4608BC6047C046819E002035
:10A0900008B4024B9C4608BC6047C0463D130020F4
:10A0A00008B4024B9C4608BC6047C046718900203A
:10A0B00008B4024B9C4608BC6047C046E113002030
:10A0C00008B4024B9C4608BC6047C04601140020FF
:10A0D00008B4024B9C4608BC6047C046699E0020FD
:10A0E00008B4024B9C4608BC6047C0465113002090
:10A0F00008B4024B9C4608BC6047C046BD5A0020CD
:10A1000008B4024B9C4608BC6047C046EB130020D5
:10A1100008B4024B9C4608BC6047C0463B14002074
:10A1200008B4024B9C4608BC6047C046117D002025
:10A1300008B4024B9C4608BC6047C0461F7D002007
:10A1400008B4024B9C4608BC6047C04635B50020A9
:10A1500008B4024B9C4608BC6047C046BDB5002011
:10A1600008B4024B9C4608BC6047C046EDEB00209B
:10A1700008B4024B9C4608BC6047C04635BC012071
:10A1800008B4024B9C4608BC6047C04605F5002059
:10A1900008B4024B9C4608BC6047C0460DBD012078
:10A1A00008B4024B9C4608BC6047C04647BC01202F
:10A1B00008B4024B9C4608BC6047C0468BBC0120DB
:10A1C00008B4024B9C4608BC6047C046D1BB012086
:10A1D00008B4024B9C4608BC6047C046CFBC012077
:10A1E00008B4024B9C4608BC6047C046E3BB012054
:10A1F00008B4024B9C4608BC6047C046FBBB01202C
:10A2000008B4024B9C4608BC6047C046E1BC012034
:10A2100008B4024B9C4608BC6047C04677BB01208F
:10A22000F0B589B0060005AC00202070BC4800786D
:10A2300000282AD1377A707A694608710020009088
:10A2400003AB6F220121FFF703FF03A93000FFF7E3
:10A2500047FF002825D101213000FFF769FFFF28C3
:10A2600002D18120207038E01D214843C44909688B
:10A2700008180290407B8007800F022802D08120BE
:10A2800020702AE08320207027E0B778F0786946B4
:10A290000871BC480168491C3000FFF739FF0028ED
:10A2A00002D00020207018E001213000FFF738FFB5
:10A2B000FF2802D1812020700FE01D214843B049C2
:10A2C000096808180290407B8007800F022802D09E
:10A2D0008120207001E0832020700B25FF20E07298
:10A2E000207800280FD1A7480168491C20000930B8
:10A2F000FFF7DEFE0020009023005B1C6F2201218F
:10A30000FFF7A6FE3CE02078812824D1844800781D
:10A3100000280CD19B480168491C20000930FFF738
:10A32000C7FE3100641C2000FFF7B2FE0CE03100D4
:10A3300020000930FFF7BCFE00200090641C2300C1
:10A340006F220121FFF784FE2A4605A93000FEF79F
:10A3500067FE28463AE0832812D100202070029838
:10A36000017A427A1206120C114320000930FFF7DD
:10A37000A7FE02992000401CFFF78AFE0020E07231
:10A38000022F02DB8020207015E0012F13D16846D8
:10A3900000792073E07AFF2807D132000D32217B4B
:10A3A0005F480078FFF7E4FEE072E07A45000D3583
:10A3B000002800D16D1E012F01D10D2200E00B22DB
:10A3C00005A93000FEF72CFE2800C0B209B0F0BD90
:10A3D000F0B585B0070000252C4668460121417084
:10A3E0003800FFF73DFE06003900891C02A8FFF780
:10A3F0004FFEB87A01900B373800FFF731FE0700A7
:10A40000B148007AFF280AD102A93000FFF798FE70
:10A41000050004D102A93000FFF79AFE0500002DC7
:10A4200075D121463000FFF79BFE002803D006229D
:10A43000FF21FEF70DFE3000FFF7A2FE052102A866
:10A44000FFF776FEFF2862D0694622464A701D213A
:10A4500048434B49096808180321019A0A400CD067
:10A46000022A06D059D3032A0AD16A46234613701A
:10A4700006E06A460123137002E06A460223137065
:10A48000427B0B001340022B08D16B461B78022B3A
:10A4900004D00221FFF704FE01242EE03B231340E9
:10A4A0000A2B07D1B74205D0C723134020221A43F5
:10A4B00042730124427B0B0013406D462D78AB4262
:10A4C0000DD0FC2313402A46114019434173FB224F
:10A4D0000A40019904231940114341730124027A6F
:10A4E000417A0906090C0A43B24203D00672360AC1
:10A4F000467201240021C1738173002C07D008200B
:10A50000FFF7E6FD002802D00120FFF7B9FD6846FD
:10A510004078002801D0FFF7ABFD002005B0F0BD6A
:10A520005CDC0120F1B582B0002004006E46F070C2
:10A53000A04F16E0E000051938684019001DFEF72D
:10A5400077FD0299FFF724FE002808D0F078301834
:10A5500039684919097A0171F078401CF070641C5F
:10A56000E4B2BC4800788442E4DBF478241DE4B211
:10A57000220069460298FEF753FD2000FEBD000050
:10A5800064CB01206CCB0120F8B504000026350017
:10A59000B14F3968491CFFF7BBFD002809D1AF480E
:10A5A0000078062808D12000FFF75AFDAC49884200
:10A5B00002D1684606700CE0AA480068007840079F
:10A5C000400F0228684602D18021017001E08121FC
:10A5D00001702100801CFFF76BFDA04800786946E0
:10A5E0000978002936D102280CD003280FD004287E
:10A5F00016D005281FD0062818D0112820D01428DE
:10A6000023D043E02000FFF7CBFD05003EE0964855
:10A6100001681D312000C01CFFF74AFD052535E00B
:10A6200069462000FFF7C4FD05002FE02000FFF77A
:10A63000C7FD05002AE02000FFF7CAFD050025E060
:10A640002000FFF7CDFD050020E02000FFF7D0FD42
:10A6500005001BE0801E012817D9801E11D0401E66
:10A6600011D0401E04D00B380CD0C01E0DD00DE010
:10A6700001212000FFF754FDFF2802D06846892100
:10A680000170E670E670042500E0032500A8801C38
:10A69000FFF7E6FCC84988420ADB386841788278CF
:10A6A0001206120C11432000401CFFF709FD05E0C3
:10A6B00000A9891C2000401CFFF7FAFC68460078BE
:10A6C00020702800F2BD0000E8DA0120F6B583B062
:10A6D000002426000222B94901A8FEF7A1FC10239C
:10A6E00001A803C80A0001000220FFF701FD0700CE
:10A6F0000D3FFFB2250016E008310498FFF7D8FCA3
:10A700000098AF4909680818027A417A0906090CCD
:10A710000A43AC48824204D0761CF6B20498801CEE
:10A7200004906D1CEDB2192D13DA1D2068430090C2
:10A73000A34909680918487B3B2202400A2AF0D144
:10A740006846007BE4B2844201D2641CE9E7022F30
:10A75000D2DA300005B0F0BDF1B584B0001D009034
:10A760000024250016E0E800401997490F183E7AAA
:10A77000F12E0DDA3800FEF75BFC002808D03F1DF3
:10A780003800FEF755FC002802D000984655641C9E
:10A790006D1CEDB28D4800788542E4DB01ADEC70B4
:10A7A00001A90498FFF7ACFCE878001DC0B205B021
:10A7B000F0BD000090CA0120F2B582B0070000246D
:10A7C0000846007906004000081801904579029972
:10A7D000891C6846FFF76CFC387879780906090C03
:10A7E000084369460988814211D008467549884264
:10A7F00007D1397878780006000C0143744881420B
:10A8000005DB68460088FFF7FBFC00281AD001240E
:10A810003800801DFEF70CFC029B5B1D020031001E
:10A820007879FFF7F5FC002810D138000B30FEF7DF
:10A83000FFFB0200019B9B1D2900B87AFFF7E8FC93
:10A84000002803D1012C03D1354301D10120FEBDE5
:10A850000020FEBD20CE01206CCB01205CDC01205D
:10A86000FDFF00007CCB012040DC0120F0B585B06D
:10A8700006000F00150000240222504903A8FEF72D
:10A88000CFFB102303A803C80A0001000220FFF732
:10A890002FFC401FC0B2029020463870F12E01DA22
:10A8A000002E02D1822084E0641C48480078E4B283
:10A8B00084427DD2E000001943490818017A8E4293
:10A8C000F2D1001DFEF7B4FB0090007828706D1CDB
:10A8D0000098407828706D1C0098807828706D1C56
:10A8E0000098C07828706D1C0098007928706D1C45
:10A8F0003878801D38700098801DFEF799FB00287D
:10A9000025D0009840793B7800E0401EC0B2002876
:10A9100005D002994200D218921C9142F5DB0190B9
:10A9200028706D1C00240098801DFEF781FB060036
:10A9300009E031002800FFF7BBFBAD1C3878801C14
:10A940003870B61C641CE4B201988442F1DB0098B4
:10A950000B30FEF76DFB002825D00098807A3B78FD
:10A9600000E0401EC0B2002805D002994200D21873
:10A97000921C9142F5DB019028706D1C0024009818
:10A980000B30FEF755FB060009E031002800FFF709
:10A990008FFBAD1C3878801C3870B61C641CE4B288
:10A9A00001988442F1DB3878801C3870002000E088
:10A9B000832005B0F0BD0000FBFF00005EDC01203D
:10A9C00064CB0120FFFF0000FCC5012020CE012048
:10A9D000FF7F000008B4024B9C4608BC6047C0469D
:10A9E0003527002008B4024B9C4608BC6047C0468F
:10A9F0007F25002008B4024B9C4608BC6047C04637
:10AA0000E361002008B4024B9C4608BC6047C04686
:10AA1000DD7A002008B4024B9C4608BC6047C04663
:10AA2000FBA2002008B4024B9C4608BC6047C0460D
:10AA3000ED30012008B4024B9C4608BC6047C0467C
:10AA4000C1F0002008B4024B9C4608BC6047C046D9
:10AA5000058C002038B50021B020FFF7C3FF0400AB
:10AA60001BD0902020702000401C00210A000270A2
:10AA7000B64A4270120A8270B54A12685F3215787F
:10AA800053781B061B0C1D43C5700A000271A1718F
:10AA90002100C91D1046FEF7E3FA2000FFF7B2FFC0
:10AAA00031BDF0B587B00024022006902146B020C9
:10AAB000FFF798FF0590A74D2046287005980028BD
:10AAC00000D1E5E03A30009005992431FEF7C8FA4C
:10AAD000009808210170214641E0D0484A005218F0
:10AAE0008218CF4B13701B0A53701D224A430192E8
:10AAF000CC4A019B1668F3189E7CFF2E2ED05E7BFD
:10AB0000B607B60F022E29D01E7A5F7A3F063F0C99
:10AB10003E43C34B9E4221D0019B1668F3185E7BD7
:10AB2000F6087607760F032E18DA641C1E7A5F7A11
:10AB30003F063F0C3E432B785F00FB18C3181E7086
:10AB4000360A5E702B785E00F318C018019B1268FD
:10AB5000D218927C82702878401C2870491C1929D0
:10AB6000BBDBE4B2002C03D100986021417076E099
:10AB70002878411E09B237E0A84853009B18C01836
:10AB8000C37806793606360C33430778467836069E
:10AB9000360C3743BB4221D2C67803791B061B0C07
:10ABA0001E439F4B9E4219D0C67803791B061B0C8F
:10ABB0001E436B461E81437902AEB3700678477818
:10ABC0003F063F0C3E43C670360A067186784671D2
:10ABD0006E4636890670360A46708370521C12B271
:10ABE0008A42C9DB491E09B2002901D40022F7E7D5
:10ABF0001A2C09DA60000019801CC0B20690009877
:10AC000060212143417006E04D20069000983921D3
:10AC1000417001206870009CA41C002518E07F484A
:10AC2000690049194018027841780906090C0A435D
:10AC30002270641C027841780906090C0A4311004D
:10AC4000090A2170641C80782070641C6D1CEDB2B0
:10AC50000698801E0321FFF7CDFE8542DFDB002032
:10AC60000090059B1C336F220121FFF7F1F90020B2
:10AC7000049005200390FF20029000200190069888
:10AC8000C0B200900123664AD11E0598FFF7DAFE94
:10AC900007B0F0BDF0B585B00021B020FFF7A2FEEF
:10ACA000040050D027003A37210024313800FEF745
:10ACB000D7F9082038702748007841000D18493D21
:10ACC000EDB21938402101437970BF1C00261DE008
:10ACD000700080195149081801004B310B784A78EF
:10ACE0001206120C13433B707F1C01004B310B7892
:10ACF0004A781206120C13431900090A39707F1C96
:10AD00004D30007838707F1C761CF6B2A81E0321E7
:10AD1000FFF770FE8642DBDB0020009023001C332F
:10AD20006F220121FFF794F9002004900520039081
:10AD3000FF2002900020019000950123AA4AD11E15
:10AD40002000FFF77FFE05B0F0BD0000FCFF000013
:10AD500044DC01204CDB0120F2B586B00500012661
:10AD6000684606752E49C1828F1E1020A8740020E7
:10AD700000902B001C336F223146FFF769F92C003D
:10AD80004034290024312000FEF76AF904202070A5
:10AD900000206070280009304178002901D020216E
:10ADA00061700078002803D06078802101436170D1
:10ADB0006846007EFE281CD01D21484319490968B9
:10ADC0000918487B8008304202D168460522027586
:10ADD0000F7A487A0006000C07436846C7822800AD
:10ADE0001430FFF755F90820A8746078402101431A
:10ADF000617000200490082003906846007E029055
:10AE00006846007D01900220009033466846C28A61
:10AE100039002800FFF716FE07B0F0BD98DA0120D0
:10AE2000FFFF000064CB0120FBB586B015000027B2
:10AE3000684639004175FF2101753E00C44801682C
:10AE400048788A781206120C10436946898B814231
:10AE500055D03146B020FFF7C5FD04004FD00E9904
:10AE600000290BD02822FEF7DBF80126A079002864
:10AE700006D139462000FFF7ADFD40E01E20A0714D
:10AE800040200321215441206946097E215442205B
:10AE9000290021544320090A215453486946898BCB
:10AEA000AC4A9142694601DBC88211E0098C8142BB
:10AEB000684669460AD1898BC18205AB05AA521C36
:10AEC00005A9891C07A8FFF7B5FD01E0098CC1821F
:10AED0006846407D002800D0042704960420039093
:10AEE0006846007D029001203843019004200090C4
:10AEF000A3796846C28A818B2000FFF7A3FD09B0C1
:10AF0000F0BDF6B587B004001D00012005900627AE
:10AF100002261020A07421001C3120001430FFF7FD
:10AF2000B7F80020009023001C336F220121FFF7A7
:10AF30008FF8062D11D12500403521002431200045
:10AF40004030FEF78DF8384628706D1C82488078B6
:10AF500028704006400E287032E00826A07C30435E
:10AF6000A0742500403507272F706D1C0F9828709E
:10AF70000FA8407868700FA93046FFF753FD0028EE
:10AF80000DD0817A314201D105210591617A0129E3
:10AF900002D10121017310E0002101730DE0684628
:10AFA000007F1D2141436D4A12685118497B4907B2
:10AFB00003D4192801DA052005900E98A8700426FC
:10AFC0000020049003976846007F02900598C0B265
:10AFD0000190009601236846028C11462000FFF77D
:10AFE00031FD09B0F0BD0000FFFF0000F0B587B0F3
:10AFF000040000265A48C07AFF2804D031462000B9
:10B00000FFF7E8FCA1E01020A07430460090230078
:10B010001C336F220121FFF71BF840200921215426
:10B020004B4F3968083120004230FFF731F839685A
:10B03000891D20004A30FFF73BF835460CE06800D8
:10B04000484909180A88484B9A4204D020184C30C5
:10B05000FFF72EF8761C6D1C052DF0DB210040312A
:10B060003000401C4870052138681A30FFF758F846
:10B0700069460875FF280CD01D21484337490968E7
:10B08000091820001430FFF703F8A07C08210143C1
:10B09000A17401252800207420703968887ECA7E3A
:10B0A0001206120C1043A070000AE07002206070BB
:10B0B000F6B270000C302071FFF7ACFC60711E20FE
:10B0C000A07125720020607438680178481E8041A4
:10B0D000C043C00F607220480178491C0170A17202
:10B0E0002100243120004030FDF7BAFF396848784C
:10B0F0008A781206120C1043A073000AE07305ABA5
:10B1000005AA521C05A9891C2000801CFFF792FC8F
:10B11000002816D1A178E0780006000C0143002039
:10B120000490092003906846007D02902846019013
:10B1300020790090A3796846C28A2000FFF782FC3C
:10B1400003E000212000FFF745FC07B0F0BD000040
:10B150006CCB0120F8FF0000CCDB012064CB012088
:10B16000E8DA012004DC0120FFFF000008B4024BF4
:10B170009C4608BC6047C046AD61002008B4024B45
:10B180009C4608BC6047C0463B20002008B4024BE8
:10B190009C4608BC6047C0462B1E002008B4024BEA
:10B1A0009C4608BC6047C046CB67002008B4024BF1
:10B1B0009C4608BC6047C0461320012008B4024BDF
:10B1C0009C4608BC6047C04631B4002008B4024B1E
:10B1D0009C4608BC6047C0466DE5002008B4024BA1
:10B1E0009C4608BC6047C0466DEE002008B4024B88
:10B1F0009C4608BC6047C04639EC002008B4024BAE
:10B200009C4608BC6047C04681F5002008B4024B4C
:10B210009C4608BC6047C046278B002008B4024B00
:10B220009C4608BC6047C04641F5002008B4024B6C
:10B230009C4608BC6047C0460170012008B4024B20
:10B240009C4608BC6047C046578B0020F1B588B0CB
:10B2500000262430FDF7ECFE0700BC783900491DBC
:10B2600005A8FEF725FF3900C91C06A8FEF720FF38
:10B2700078780100C90600D50826800601D5083671
:10B28000F6B221006846008BFFF7C8FF050064D0C6
:10B29000287BFF2803D028000C30FFF77FFF684889
:10B2A000016848788A781206120C10436946098BA7
:10B2B000814258D100216846808AFEF751FF040080
:10B2C0004BD0A0784107490F01292FD1F821014027
:10B2D000A1700899087B4A7B1206120C104320715A
:10B2E000000A6071F879A87128001530FFF74EFF49
:10B2F000002808D08178C2781206120C11436A46E1
:10B30000928A8A420AD008990020FFF767FF28E056
:10B31000FFF75CFF28001530FFF738FF0028F7D152
:10B32000002115352800FFF729FF0DE0F879A979EC
:10B33000884212D2A8710899087B4A7B1206120C27
:10B3400010432071000A6071FE200090FF2300224C
:10B35000241D21001046FFF731FF00210898FFF758
:10B3600039FB09B0F0BDA879002802D0F9798142F3
:10B37000F3D200216846808AFEF7F2FE0400ECD08A
:10B38000A078F8210140A1700899087B4A7B120639
:10B39000120C10432071000A6071F879A871FE2028
:10B3A0000090FF2300222100091D1046FFF706FF31
:10B3B0000521241D2000FEF7B3FEFF28CDD01D215E
:10B3C0004843204909680818807C0F21084201D0B1
:10B3D000014000E00921000900D10920FA798842E2
:10B3E00002D25018F87101E01018F871ED1C290014
:10B3F00005A8801CFEF75CFE11480168491C0898EE
:10B400000E30FEF755FE10480178491C017008986F
:10B41000817208988379022B00DA012301200490BD
:10B4200004200390FF200290012001900836F6B21C
:10B4300000966846C28A11460898FFF703FB90E71A
:10B440006CCB012064CB0120CCDB0120F0B589B0AE
:10B4500006006846C4494183002530002430FDF7CA
:10B46000E7FD04908078694648730499C91C06A8D2
:10B47000FEF71EFEB17BF07B0006000C0143684620
:10B48000C182317B707B0006000C014368468182DB
:10B490000498477806A9891C6846008BFFF7C6FE0A
:10B4A0001824274208D1B079002805D16846408B7E
:10B4B000AD49884200D1F0E1B80605D508250499C8
:10B4C000891D07A8FEF7E4FD052105A8FEF728FE63
:10B4D000FF2800D1E1E11D214843A449096808186B
:10B4E000417B8907890F022900D1D6E1817C0807B9
:10B4F000000F00D10920090900D10921049A5279CD
:10B50000814203D280186946087302E088186946B0
:10B5100008732742684600D1B8E0C08AFFF766FE8C
:10B520000290002800D1ACE06846417BC08AFFF75A
:10B5300075FE0400684667D1008B019000200090E2
:10B540006846037B828AC18A407BFFF757FE04006E
:10B5500000D1A2E102986946898A0171090A417104
:10B5600002988078F821014002988170C720084035
:10B570000299887004994978102903D10821014360
:10B58000029881700298817810200843029988708F
:10B5900020210143029881700120A073E0730320F1
:10B5A0002074210011313000FDF75AFD07A80090EA
:10B5B000049B3A006846018B2000FFF727FEAD1D73
:10B5C0003571FFF727FA70713100243130004030B7
:10B5D000FDF746FD0120049004200390FF20029017
:10B5E0000020019030790090B3795F4AD11E30007D
:10B5F000FFF728FA2200AB49AB480388AB48584311
:10B60000FFF7D4FD607327E1007B6179884200D3A6
:10B6100043E102986946898A0171090A417105A9C5
:10B620002000C01CFEF744FD6846007B60712100CD
:10B6300011313000FDF714FD07A80090049B3A007B
:10B640006846018B2000FFF7E1FDAD1D3571FFF766
:10B65000E1F970713100243130004030FDF700FD18
:10B660000120049004200390FF200290002001900C
:10B6700030790090B3793C4AD11E3000FFF7E2F9EF
:10B68000EAE000213000FFF7A5F9E5E0408B3649FC
:10B69000884268466CD0417BC08AFFF7BFFD04003A
:10B6A000684621D1008B0190002000906846037B02
:10B6B000828AC18A407BFFF7A1FD040000D1ECE043
:10B6C0000020A073E07304202074210011310020B9
:10B6D000FDF7C6FC2200734973480388734858433A
:10B6E000FFF764FD60730CE0007B6179884200D352
:10B6F000D3E005A92000C01CFEF7DAFC6846007BF9
:10B70000607107A80290049801906846007B009041
:10B710006846438BC28A417B3800FFF78FFD0025C6
:10B72000F80600D50825B80601D50835EDB2604801
:10B73000016848788A781206120C1043B073000A28
:10B74000F0730020049004200390FF200290012059
:10B7500001900835EDB200951E236846828AC18AA1
:10B760003000FFF76FF968E0FFFF000064CB0120B5
:10B77000008BFFF73BFD002800D18EE06846417B3F
:10B78000C08AFFF74BFD0400684667D1008B01902B
:10B79000002000906846037B828AC18A407BFFF7C5
:10B7A0002DFD040079D00120A0730020E073032058
:10B7B0002074210011313000FDF752FC220039497C
:10B7C000130039480288394850431A00FFF7EEFC4D
:10B7D0006073FFF7CBFC2200364983069B0E0120E5
:10B7E0001843FA239B005843334BC018FFF7DEFC85
:10B7F000207307A80090049B3A006846018B200044
:10B80000FFF704FDAD1D3571FFF704F970713100CC
:10B81000243130004030FDF723FC01200490042047
:10B820000390FF2002900020019030790090B379BE
:10B83000224AD11E3000FFF705F96846C08AFFF79B
:10B84000D5FC002808D06946898A0171090A41712E
:10B850008178F8220A40827009B0F0BD007B6179DE
:10B8600088421AD205A92000C01CFEF721FC6846B8
:10B87000007B607120001130FDF7DAFB002806D054
:10B8800020001130FDF7D4FB0021FFF7A3F82100C1
:10B8900011313000FDF7E4FBABE700213000FFF78A
:10B8A00099F8D9E7D1EA00201ACE0120A08601003C
:10B8B0006CCB012053EB002030E00300FFFF0000C1
:10B8C00008B4024B9C4608BC6047C046F5200120E6
:10B8D00008B4024B9C4608BC6047C0467D7B0020F4
:10B8E00008B4024B9C4608BC6047C0468113002048
:10B8F00008B4024B9C4608BC6047C0469913002020
:10B9000008B4024B9C4608BC6047C046E57F002057
:10B9100008B4024B9C4608BC6047C046AB6300209D
:10B9200008B4024B9C4608BC6047C046C98B002047
:10B9300008B4024B9C4608BC6047C04665830020A3
:10B9400008B4024B9C4608BC6047C04681300120C9
:10B9500008B4024B9C4608BC6047C04661300120D9
:10B9600008B4024B9C4608BC6047C04631300120F9
:10B9700008B4024B9C4608BC6047C0466B8001205F
:10B9800008B4024B9C4608BC6047C046F5800020C6
:10B9900008B4024B9C4608BC6047C046A188002002
:10B9A00008B4024B9C4608BC6047C0469D3101204C
:10B9B00008B4024B9C4608BC6047C046DF310120FA
:10B9C00008B4024B9C4608BC6047C0465139012070
:10B9D00008B4024B9C4608BC6047C0461D89002045
:10B9E000F8B5BD49FDF73CFBBB48FDF721FB07005F
:10B9F0007F1CBA48B97B8170FFF7E2FF387A0028D4
:10BA00004CD1B74E707800285CD100213800FFF788
:10BA10008FFFB44D686000283BD00078287000216B
:10BA2000B020FEF7DFFF040033D0452020706968A6
:10BA30004879607002200200E270A070C91C2000EA
:10BA4000001DFEF735FB6968491C2000801DFEF7CC
:10BA50002FFBB87BA07300200100E1732074082243
:10BA600020001130FDF7F4FA012060766868807BD1
:10BA70009D4908702000FFF72BFF0020009008353B
:10BA80002B00112201210846FEF7E2FA0620707011
:10BA9000F1BD9649CA20FFF75BFFF1BD012811D126
:10BAA00038000930FDF7C4FA7A7B01000120FFF766
:10BAB0005FFF8C4800214170894807214170FFF7E2
:10BAC0005FFFF1BD8949C320FFF742FFF1BDF0B52B
:10BAD00083B006008048FDF7ABFA07007F1CFFF734
:10BAE000EFFE834D002128681C30FEF719FBFF286C
:10BAF0000AD01D2148437F4909680818417BC722A5
:10BB00000A4010211143417301213800FFF710FF53
:10BB1000744C606000281ED16078401C6070704DCD
:10BB20000126754909682C310978C0B2884207D3CB
:10BB3000002060706D49C320FFF70AFF2E70F7BD2B
:10BB400038000930FDF774FA01007A7B3046FFF7C0
:10BB50000FFF2E70F7BD01782170417882781206B0
:10BB6000120C114328680177090A417700200090E0
:10BB70002B681C334B2201210846FEF769FA00208E
:10BB800000906368DB1C502201210846FEF760FA32
:10BB90000020009063685B1D024602210120FEF731
:10BBA00057FA6168C8780A791206120C104329689E
:10BBB0008871000AC871296848788A781206120CC0
:10BBC0001043B073000AF073606842788178090608
:10BBD000090C0A43002001900090062321783000D0
:10BBE000FFF79EFEF7BD000030B587B0050003A843
:10BBF00044A11CC91CC04148817AFF2903D137499F
:10BC00008978090761D40A30FFF7C8FA29001C3186
:10BC100001A8FEF73DFA28002430FDF709FA0100DB
:10BC200003AC491C2000401CFEF742FA28002430D7
:10BC3000FDF7FEF9C078002842D1002000902300D3
:10BC40005B1C532201210846FEF702FA00200090F7
:10BC500001AB4A2201210846FEF7FAF9284800788C
:10BC6000002801D1FFF76CFE6078A1780906090C65
:10BC700008431F4909684B788A781206120C13434F
:10BC800098421FD0002405E0C7220A40102111432A
:10BC90004173641C192C15DA1D206043D6490968CC
:10BCA0000818417B0A00D2085207520F012AF0D12E
:10BCB0008A07920F022AE7D10221FEF7F1F9E8E79D
:10BCC000C320207003A8FFF74BFE00212800FEF7D9
:10BCD00081FE07B030BD0000FADB0120CCDB012083
:10BCE00014DC012068E00120F8DB0120FFFF0000E8
:10BCF0006CCB012064CB012044DC0120E8DA012078
:10BD0000C0DB012000FFFF00000000000000000079
:10BD1000F1B582B000270078002800D0F3E0B64CDF
:10BD2000B64D6868002800D1AAE028781D21484354
:10BD300021680818027A417A0906090C0A43B048BA
:10BD400082425CD108226968891D28781D235843E6
:10BD500023681818FDF764F9696848788A7812062C
:10BD6000120C104329781D22514322685118087281
:10BD7000000A48726968C8780A791206120C1043E2
:10BD800029781D225143226851188872000AC8720E
:10BD900028781D2148436968226812184B7913736B
:10BDA00022681218D4235373226812183B46D373A7
:10BDB0002268121893732268121813744A7C23683D
:10BDC0001B1800935E7CFE2333401600F607F60F27
:10BDD0001E43009A5674897C22681218567C81236F
:10BDE000334049007E260E401E43567421680918D0
:10BDF00005228A74216808183946C17401752878AB
:10BE00001D21484321680918087A4A7A1206120C43
:10BE100010437C4E31680877000A487702994878C9
:10BE20008A781206120C104331684B788A78120611
:10BE3000120C1343984200D00127029948788A785F
:10BE40001206120C104331684870000A8870287876
:10BE50001D214843216809184A7BC72313404B73AF
:10BE60000021009121680B184A2201210020FEF7D1
:10BE7000EFF82878FFF7ACFD6868007C31684876F9
:10BE800061484178002901D0062908D15F498978A5
:10BE9000890701D5042100E0052141700BE0072945
:10BEA00009D1002F05D0574E306800214174306809
:10BEB000C174FFF76DFD28781D21484321680918DA
:10BEC0000A7C322A05DB4C2A01DB012302E0032332
:10BED00000E007230F228D7CF0262E4015001D4028
:10BEE00035438D74216809188B7C1A401301134364
:10BEF0008B74216808180021C1740175FFF750FD8B
:10BF0000FFF756FD08E0C22806D03F4841780729D0
:10BF100002D03F49497841703E480178002921D13B
:10BF20003B4C2000801CFDF783F8782101703548D8
:10BF3000016808310298C01CFEF7AAF8029833493C
:10BF4000C978C1722000801CFDF772F80C2202999A
:10BF5000401CFDF765F8A41C2000FDF769F8FFF709
:10BF6000D7FC0AE000210170B020FEF73BFD00285D
:10BF700003D08F210170FFF7CBFC27490020FDF78C
:10BF80006FF8F7BDF8B504002348FDF751F8070036
:10BF90007F1C1A4D6868C17C08220A43C274002CB9
:10BFA00013D11E4E3068FFF7A3FC002804D0306880
:10BFB000FFF796FC002808D16868801DFFF7A0FCF9
:10BFC000082200213800FDF743F821003800FFF770
:10BFD000AFFC00280ED01048FDF72AF8FEF712FD3E
:10BFE0000948002C02D10021417001E00521417077
:10BFF0000120F2BD0020F2BD64CB012068E00120E9
:10C00000FFFF00006CCB012014DC0120CCDB012001
:10C01000F8DB0120C0DB0120FADB012044DC012039
:10C0200008B4024B9C4608BC6047C046E96100204A
:10C0300008B4024B9C4608BC6047C046050E002071
:10C0400008B4024B9C4608BC6047C046E10D002086
:10C0500008B4024B9C4608BC6047C046C90D00208E
:10C0600008B4024B9C4608BC6047C046210E002025
:10C0700008B4024B9C4608BC6047C046370E0020FF
:10C08000F4B593B004000F001D0000BFBBA00190E9
:10C090001A98400602D500BF77A001901A98C006F2
:10C0A00003D51A98012188431A901398801E2328DB
:10C0B00001D3002099E001211A980840684602D077
:10C0C0003022427001E020224270002632000270CD
:10C0D0001A98800717D5002F06D568462D220270C2
:10C0E000380047426D1E0EE01A98400704D5684696
:10C0F0002B2202706D1E06E01A98000703D56846D1
:10C10000202202706D1E1A98800607D513981028F9
:10C1100001D1AD1E02E0082800D16D1E002F12D102
:10C120006846302202720E000FE038001399FFF7C4
:10C1300077FF0198405C02A98855761C3800139956
:10C14000FFF76EFF0700002FEFD11998B04200DA19
:10C1500030002D1A1A9911220A4007D102E020213D
:10C160002170641C29004D1E0129F8DA69460978FE
:10C17000002903D0694609782170641C1A99890640
:10C180000ED51399082903D130212170641C07E0D2
:10C19000102905D130212170641C78212170641C84
:10C1A0001A99C90608D403E0694649782170641CCD
:10C1B00029004D1E0129F7DA0100481E8E4207DAD8
:10C1C00030212170641CF7E702A8805D2070641C98
:10C1D0003000461E0128F7DA2800451E012803DB3F
:10C1E00020202070641CF7E7200014B0F0BD000090
:10C1F000FAB487B061A100910D9B590602D500BF2A
:10C200001DA1009100210C4616E0002C03D001ADC9
:10C210003A266E54491C079D2D5D2E003611009F55
:10C22000BE5D01AF7E54491C2D072D0F009E755D2C
:10C2300001AE7554491C641C062CE6DBDB0607D4F2
:10C2400002E020230370401C13005A1E9942F8DBC1
:10C25000002304E001ACE45C0470401C5B1C8B42D6
:10C26000F8DB13005A1E994203DA20230370401CA6
:10C27000F7E709B0F0BC7047303132333435363728
:10C2800038394142434445464748494A4B4C4D4E54
:10C290004F505152535455565758595A00000000A8
:10C2A000F6B586B004000026354616E00A2F0DDBF1
:10C2B00038000A21FEF79EFB30A1085C69468855CC
:10C2C000761C38000A21FEF795FB0F00684600BF78
:10C2D0002AA1C95D8155761C6D1C042D2DDA002D17
:10C2E00003D068462E218155761C0698475D002FA5
:10C2F00004D1684630218155761CEDE7642FD5DBEB
:10C3000038006421FEF776FB1CA1085C694688555D
:10C31000761C38006421FEF76DFB0F0038000A21FF
:10C32000FEF768FB15A1085C69468855761C380045
:10C330000A21FEF75FFB0F00C8E70D98C00608D47E
:10C3400002E020202070641C0798411E079186425D
:10C35000F7DB002004E06946095C2170641C401C86
:10C36000B042F8DB0798411E0791864203DA20208D
:10C370002070641CF6E7200008B0F0BD3031323385
:10C380003435363738396162636465666768696A6F
:10C390006B6C6D6E6F707172737475767778797A75
:10C3A00000000000F7B584B01F0004460BE03F1DFD
:10C3B000019600932B00029A2000FFF739FE04003B
:10C3C0000698401C06900498201A069909780029BE
:10C3D00000D11EE1059A904200D31AE1252900D030
:10C3E00008E1002602E03000102606430698401CB3
:10C3F0000690007801000A00202A0CD0232A0ED0D3
:10C400002B2A04D02D2AEED0302A0CD00FE0300099
:10C4100004260643EAE7300008260643E6E7300034
:10C4200020260643E2E7300001260643DEE700252A
:10C43000ED4330390A2904D206A8FFF701FE0500B2
:10C440000DE02A280BD10698401C06903D683F1D40
:10C45000002D04D528004542300010260643002355
:10C46000DB43069800782E2816D10698401C0690CB
:10C470000078010030390A2904D206A8FFF7E0FD50
:10C48000030006E02A2804D10698401C06903B6869
:10C490003F1D002B00D500230020C04306990978DA
:10C4A0006C2901D04C2903D108000699491C06913A
:10C4B0000A210291069909780A00412A6AD0582A6D
:10C4C00000D184E0612A68D0632A10D0642A00D1A8
:10C4D00083E0692A00D180E06F2A71D0702A46D0AB
:10C4E000732A19D0752A6DD0782A73D079E0F006B6
:10C4F00006D4202001E02070641C6D1E012DFADAA4
:10C50000386820703F1D641C20206D1E012D00DA4C
:10C5100056E72070641CF8E7386800903F1D00283B
:10C5200002D100BF3DA0009019000098FFF790FDD8
:10C53000F10607D402E020212170641C29004D1E61
:10C540008842F8DB002107E0009A12782270009AF6
:10C55000521C0092641C491C8142F5DB29004D1ECF
:10C56000884200DB2CE720212170641CF6E70020C4
:10C57000C043854203D108253000012606430196B9
:10C5800000932B00102239682000FFF751FD0400B2
:10C590003F1D15E7310040260E436C28009607D159
:10C5A0002A0039682000FFF75BFD04003F1D07E704
:10C5B0002A0039682000FFF75BFD04003F1DFFE6FD
:10C5C000082102916C281ED139683F1DF0E6310028
:10C5D00040260E4310210291F4E7310002260E435B
:10C5E000F0E7252902D025202070641C06980078E9
:10C5F000002804D0069800782070641CE0E60698B5
:10C60000401E0690DCE6B007396800D4CFE63F1D37
:10C61000CEE60021217007B0F0BD00003C4E554C25
:10C620004C3E000008B4024B9C4608BC6047C04624
:10C630001116002008B4024B9C4608BC6047C04657
:10C64000D903002008B4024B9C4608BC6047C04692
:10C650001593002008B4024B9C4608BC6047C046B6
:10C660002793002008B4024B9C4608BC6047C04694
:10C6700039930020F1B584B00E0015001C00684607
:10C68000FF2101737B48006803A9029104A901916D
:10C6900001210091002318220178401CFFF7CAFFF6
:10C6A000070001D1744826E06846007B397888424B
:10C6B00020D16846007C38700A987870BD702D0AC9
:10C6C000FD703900091D3000FCF7CAFC3900083143
:10C6D0002000FCF7C5FC39000C310B98FCF7C0FCBE
:10C6E000390014310C98FCF7BBFC103739000D9859
:10C6F000FCF7B6FC002005B0F0BD33B583B01500E3
:10C700001C005C4800680021029103A901910121ED
:10C710000091002318220178401CFFF78BFF28604E
:10C72000002802D1002020600FE00830FCF780FCD8
:10C730000021029104A90191012100910023052209
:10C7400029684978FFF776FF206005B030BD00000A
:10C75000F4B506000D0000240C30FCF769FC00283D
:10C760000AD030000C30FCF763FC010000988847C9
:10C77000C649884200D07CE00098401DFCF758FC78
:10C780000700E97828790006000C01434807400FAC
:10C7900006D0022828D01AD3042843D033D358E037
:10C7A000361D3000FCF744FC6A78A9780906090CAC
:10C7B0000A43805CEA7829790906090C0A431100CA
:10C7C000C908C840012421000140397045E0361DE8
:10C7D0003000FCF72DFC6A78A9780906090C0A4399
:10C7E000805C3870012438E0361D3000FCF720FCF6
:10C7F0006978AA781206120C114341183800FDF727
:10C8000057FC022429E0361D3000FCF711FC697842
:10C81000AA781206120C114341183800FDF770FC7B
:10C8200004241AE0E97828790006000C01430C0082
:10C83000E408361D3000FCF7FBFB6978AA78120685
:10C84000120C1143E4B2220041183800FCF7E8FB57
:10C8500003E0B42191A0FFF7E5FE0098401CFCF72F
:10C86000E7FB002804D00098401CFCF7E1FB0470B3
:10C870000020F2BD90DA012002000600F8B50400A5
:10C880000D0016001430FCF7D3FB002809D020005F
:10C890001430FCF7CDFB010030008847002800D0A1
:10C8A000B6E020001030FCF7C3FB00280AD02000BF
:10C8B0001030FCF7BDFB0100300088477349884207
:10C8C00000D0A5E0E97828790006000C014348076C
:10C8D000400F06D0022856D044D3042879D065D31F
:10C8E00091E00127E97828790006000C014308004F
:10C8F000C0088740FFB2761D3000FCF799FB007836
:10C90000002817D02000001DFCF792FB00906E78E5
:10C91000A8780006000C0643241D2000FCF788FBC5
:10C920006A78A9780906090C0A43805C07430098D5
:10C9300087556CE02000001DFCF77AFB00906E78B4
:10C94000A8780006000C0643241D2000FCF770FBAD
:10C950006A78A9780906090C0A43805CB8430099F3
:10C96000885554E0241D2000FCF762FB04006F781A
:10C97000A8780006000C0743761D3000FCF758FB32
:10C980000078E05543E0761D3000FCF751FB0600CF
:10C99000241D2000FCF74CFB6A78A9780906090CD5
:10C9A0000A4331008018FDF783FB30E0761D30002C
:10C9B000FCF73EFB0600241D2000FCF739FB6A78DB
:10C9C000A9780906090C0A4331008018FDF798FB85
:10C9D0001DE0EF7828790006000C0743761D300033
:10C9E000FCF726FB0600241D2000FCF721FB6B78DA
:10C9F000A9780906090C0B433A00D2083100C01887
:10CA0000FCF70EFB03E0F52124A0FFF70BFE00204E
:10CA1000F2BD0000F0B585B00400080015001E004E
:10CA200001D11B4830E06B4601AA2900FFF70AFE3E
:10CA30000198002801D1174826E00098002801D16C
:10CA4000154821E002AF3D703900491C0A98FCF7F7
:10CA500007FB7F1D39003000FCF702FB002C05D1DD
:10CA600002AA00990198FFF7F5FD0DE0012C05D110
:10CA700002AA00990198FFF7F5FD05E0FF2180313A
:10CA800006A0FFF7CFFD002005B0F0BD01000600B5
:10CA9000060006000300060005000600636F6D6DCA
:10CAA0006F6E2F7069622E630000000008B4024BA5
:10CAB0009C4608BC6047C0460D13002008B4024BDA
:10CAC0009C4608BC6047C0466BB2012008B4024BCC
:10CAD0009C4608BC6047C0465DB2012008B4024BCA
:10CAE0009C4608BC6047C0463D0F002008B4024B7E
:10CAF0009C4608BC6047C046610F002008B4024B4A
:10CB00009C4608BC6047C0468BB2012008B4024B6B
:10CB10009C4608BC6047C046C1B2012008B4024B25
:10CB20009C4608BC6047C0469DB2012008B4024B39
:10CB30009C4608BC6047C046490F002008B4024B21
:10CB40009C4608BC6047C04679B2012038B5040055
:10CB5000A00076490D580F21A960754909583D314B
:10CB60000920FCF77DFA00206860002C06D1132014
:10CB7000FFF7A4FF1320FFF7A9FF31BD1420FFF733
:10CB80009DFF1420FFF7A2FF31BDF8B505000C0092
:10CB9000FFF7A4FF060000E06408B0008019400021
:10CBA0002100FFF73DFA1228F6D30A2709E03000EA
:10CBB0003900FFF735FA060020003900FFF730FA98
:10CBC000040080208001864202D2800884420ED375
:10CBD00030003900FFF724FA002905D12000390080
:10CBE000FFF71EFA0029E2D0B608A408E9E7002EF4
:10CBF00003D0002C01D02C606E60F1BD1CB5040088
:10CC00000A006B46B1A003C803C3A748824208D3F9
:10CC1000012000900190024601462000FFF766FFC8
:10CC200013BD96204000824246D04000824243D04D
:10CC30004000824240D0400082423DD040008242CB
:10CC40003AD04000824237D0E1208001824233D086
:10CC50009620C00182422FD0E120C00182422BD019
:10CC600096200002824227D0E1200002824223D097
:10CC70009620400282421FD0E120400282421BD017
:10CC8000FA20400282421DD0E1208002824213D06D
:10CC9000864882421CD0FA208002824212D0844808
:10CCA000824215D04000824212D08248824214D083
:10CCB000814882420CD015E0E12109046846FFF763
:10CCC0001DFF14E0FA2149046846FFF717FF0EE044
:10CCD0007A496846FFF712FF09E041016846FFF70D
:10CCE0000DFF04E0E2200090FA2080000190019AFC
:10CCF00000992000FFF7FAFE13BDF8B505000E00FD
:10CD00001700A8006E490C184120FFF7CFFE2060E5
:10CD10000146091D3000FCF7A3F9216808313800ED
:10CD2000FCF79EF92800FFF7F1FEF1BD00C70120D6
:10CD30002CD90120F1B582B06846007A80006149A3
:10CD40000C585F4908580830FCF772F90500606814
:10CD50004021884360602800FCF76AF901006846BA
:10CD6000007AFFF7DBFE6A4601A96846007AFFF702
:10CD7000DDFEFFF7B3FE0099FFF752F907000198B7
:10CD80004743B800C019400006002800FCF750F9DE
:10CD900001013000FFF744F90A21FFF741F90E00C5
:10CDA0002800FCF745F901013800FFF739F9052E95
:10CDB00000D3401CE16880220A43E2606168FF22E0
:10CDC00091430200120AD2B20A4362602168FF2234
:10CDD0009143C0B208432060E06880218843E0604E
:10CDE0006879002804D1E06808218843E06010E0F9
:10CDF00008210128E06806D10143E160E0681021C4
:10CE00008843E06005E00143E160E06810210143F0
:10CE1000E160A879E1680422914380001040084352
:10CE2000E06028790328E06803D103210143E16031
:10CE300002E003218843E0602800C01DFCF7F8F8F9
:10CE400020262027FF432169394040013040084314
:10CE500020612800C01DFCF7EBF8002803D02069F2
:10CE6000022101432161E87AE16839404001304004
:10CE70000843E060297B6268134810400902F20011
:10CE8000114001436160687B61680F4040010640CA
:10CE90003E4366606846007AFFF750FE60684021B6
:10CEA00001436160F7BD000081841E0090D0030043
:10CEB00020A1070060E3160080841E000048E801FE
:10CEC0002CD9012000C70120FFFEFFFF0000000059
:10CED0000000000008B4024B9C4608BC6047C046F6
:10CEE000651D002008B4024B9C4608BC6047C04644
:10CEF0000721002008B4024B9C4608BC6047C0468E
:10CF0000B109002008B4024B9C4608BC6047C046EB
:10CF1000E51C012008B4024B9C4608BC6047C04693
:10CF2000A51C012008B4024B9C4608BC6047C046C3
:10CF30008323002008B4024B9C4608BC6047C046CF
:10CF40004915002008B4024B9C4608BC6047C04607
:10CF50003715002008B4024B9C4608BC6047C04609
:10CF60004F15002008B4024B9C4608BC6047C046E1
:10CF7000B5B1012008B4024B9C4608BC6047C046CE
:10CF80006F1B012008B4024B9C4608BC6047C0469A
:10CF9000171C012008B4024B9C4608BC6047C046E1
:10CFA000AFB2012008B4024B9C4608BC6047C046A3
:10CFB00039BB012008B4024B9C4608BC6047C04600
:10CFC000C52B002008B4024B9C4608BC6047C046F5
:10CFD000E32F002008B4024B9C4608BC6047C046C3
:10CFE000031D01207FB504000025AF480090AF4825
:10CFF0000190BC480290BC480390BC4E2100BC4844
:10D00000FCF72EF800200AE0042141436A465158FB
:10D010008D4203D2042141436A465558401C0428DE
:10D02000F2D3241D2100B248401BC01C03229043B0
:10D03000FCF716F87FBDFEB50E00150000901F002E
:10D04000AC48AD490160052301AA8021C901002037
:10D05000FBF7F6FF002801D0A8482BE068460079CE
:10D060008006800E012801D0A54823E0A54C32009F
:10D0700092B200992000FFF755FF6419089A92B206
:10D0800039002000FFF74EFF09982418A92299487B
:10D0900001682000FFF746FF964800685030FBF714
:10D0A000C7FF020093480168503197481043FBF7CF
:10D0B000D7FF0020FEBD10B50400E4B2162C01DB42
:10D0C00001202AE0E4B2002C1FD0641EC9B200295E
:10D0D0000ED0884800685030FBF7AAFF85490968E0
:10D0E00050310122A24002431000FBF7B9FF0CE0CF
:10D0F000804800685030FBF79BFF7E49096850313B
:10D100000122A2409043FBF7ABFF7A480068503001
:10D11000FBF78EFFFFF70EFF002010BD10B50400D7
:10D12000002C1AD0C9B200290CD0724800685030C7
:10D13000FBF77EFF6F490968503104432000FBF77D
:10D140008FFF0AE06B4800685030FBF771FF6949B8
:10D1500009685031A043FBF783FF664800685030F0
:10D16000FBF766FFFFF7E6FE10BD00001FB568463F
:10D170006AA11022FFF7AEFE5E4800684C30FFF750
:10D18000E1FE00210020FBF7ABFFFFF7E3FE59486B
:10D190000068FFF7E7FE0020FFF7ECFE0120FFF735
:10D1A000E9FE544800685030FBF742FF0100890750
:10D1B000C90F002902D00020FFF7E4FE4D480068A7
:10D1C0005030FBF735FF01004907C90F002902D095
:10D1D0000120FFF7D7FE474800685030FBF728FFD3
:10D1E0000100C906C90F002904D06A464749012039
:10D1F000FFF7D0FE3F4800685030FBF719FF0100F1
:10D200000907C90F002904D06A4640490020FFF7EA
:10D21000C1FE384800685030FBF70AFF040035486B
:10D2200001688A313348006889300078FFF7BAFE18
:10D23000FFF758FEFFF7BEFE35480068102188430F
:10D24000334908602B4801680C312A480068001DEA
:10D25000FFF7B8FE2F480068FBF7EAFE2D49096882
:10D26000FF229043FBF7FCFE1FBD38B505000C0004
:10D27000009807218843EDB26907490F01430091E7
:10D2800021002548FBF7ECFE2800C0B2FFF73AFE6C
:10D290002100091DFBF7E4FE6846FFF79BFE0834FA
:10D2A0002100FBF7DDFE31BD4CC401203CCA01204A
:10D2B00000B583B00021C94388420CD00121C94385
:10D2C000884207D102216846FFF714FE002802D1E8
:10D2D000019806E005E00F48006824300078FFF769
:10D2E00019FE0EBD28CE01201BE1012040000020C8
:10D2F000FF670220CCCE0120B4CA0120021000003A
:10D3000003100000204000004C7D14000090D0036A
:10D310001010005F8CCB01207D1D012000C2010098
:10D3200003000000000000000000000008B4024BF1
:10D330009C4608BC6047C046B962002008B4024B56
:10D340009C4608BC6047C046C558002008B4024B44
:10D350009C4608BC6047C046D753002008B4024B27
:10D360009C4608BC6047C046E123002008B4024B3D
:10D370009C4608BC6047C046512B012008B4024BB4
:10D380009C4608BC6047C0469962002008B4024B26
:10D390009C4608BC6047C046CD57002008B4024BED
:10D3A0009C4608BC6047C046DB57002008B4024BCF
:10D3B0009C4608BC6047C0465D78002008B4024B1C
:10D3C0009C4608BC6047C0468737012008B4024B22
:10D3D0009C4608BC6047C046AB9F002008B4024B87
:10D3E0009C4608BC6047C04651E4002008B4024B8C
:10D3F0009C4608BC6047C046DB58002008B4024B7E
:10D400009C4608BC6047C0460D59002008B4024B3A
:10D410009C4608BC6047C0463B59002010B5BF4C35
:10D420000D20FFF743FB2062FFF7A0FFFFF7A6FFE9
:10D4300001210803FFF792FFB948FFF7A7FFB9489A
:10D44000FFF7ACFF1420207060707820FFF72EFBF0
:10D45000216A491CFBF704FEFFF770FF0120A07052
:10D4600010BDF0B587B004000F0001200021237823
:10D4700062781206120C1343AB4A934201DB06009A
:10D4800000E00E006D462870697021002800801CA5
:10D49000FCF70EFE2100891C2800001DFCF708FE89
:10D4A0002079A8716079E87133000122390068465B
:10D4B000FFF74CFF07B0F0BDF2B50500297868789A
:10D4C0000006000C01439848814201DB012700E07F
:10D4D00000270021B020FDF785FA040001D1934810
:10D4E000F2BD04220021FBF7B3FD062020700020CE
:10D4F000607029002000801CFCF7DAFDA978E8782C
:10D500000006000C01432000001DFCF7D9FD29791D
:10D5100068790006000C01432000801DFCF7D0FD57
:10D52000A8792072A8794600F6B2320029000831A5
:10D5300020000930FBF774FD3000401DC0B201002F
:10D540006118EA790A71E9794A00D2B2A919083159
:10D55000401CC0B22018001DFBF762FD3B000622F4
:10D5600000992000FFF7F2FE050000212000FDF7E2
:10D5700031FA2800F2BDF2B5050029786878000676
:10D58000000C01436848814201DB012700E00027CD
:10D590000021B020FDF726FA040001D16348F2BD56
:10D5A00004220021FBF754FD202020700020607031
:10D5B00029002000801CFCF77BFDA978E878000694
:10D5C000000C01432000001DFCF77AFD2900091D15
:10D5D0002000801DFCF75CFD287BA073697BA87B85
:10D5E0000006000C014320000F30FCF769FDE87BCA
:10D5F0006074E87B4600F6B2320029001131200049
:10D600001230FBF70DFD30000E30C0B20100611882
:10D610002A7C0A71297C4A00D2B2A9191131401C16
:10D62000C0B22018001DFBF7FBFC3B002022009934
:10D630002000FFF78BFE050000212000FDF7CAF94E
:10D640002800F2BD11B581B00C00FFF7AFFE002835
:10D650000BD1FFF7B3FE002807D1FFF7B7FE002874
:10D6600003D1FFF7BBFE002801D0314816BD314879
:10D670000168080001D001A88847684600790028A1
:10D6800003D12000FFF7B2FE16BD684600790128DD
:10D6900003D12000FFF7B2FE16BD022803D12000FF
:10D6A000FFF7B4FE16BD244816BDF8B506000D0000
:10D6B0000021B020FDF796F9040001D11B48F2BD0E
:10D6C00004220021FBF7C4FC144F386A3178017042
:10D6D0003000401CFBF7ACFC2100491CFBF7C0FCF0
:10D6E00016480068407960713078012807D186209B
:10D6F00020703D612000FFF719FE0020F2BD0028D8
:10D7000009D18D2020700E48022101707D6120001A
:10D71000FDF778F9F1E70B48F2BD000020CF0120BA
:10D7200085570020C3570020FBFF00000100600068
:10D730000900060048CF01200500400040DC012020
:10D740000BE101200200600008B4024B9C4608BCBB
:10D750006047C046CB01002008B4024B9C4608BC81
:10D760006047C0468180002008B4024B9C4608BC3C
:10D770006047C0464D90002008B4024B9C4608BC50
:10D780006047C0464F23012008B4024B9C4608BCAA
:10D790006047C0469B820020F0B591B00700387EFC
:10D7A000FFF7EAFF3D1818352800C01CFFF7D4FF2B
:10D7B000002800D025E1684669780909417007AE64
:10D7C0003900C91C3000801CFCF772FC787B30717A
:10D7D0003900491D07A8FCF76BFC6846397CC9096C
:10D7E00001702878002800D00BE16846407801904D
:10D7F000022800DA05E184480078002808D02900D2
:10D80000C91C824800680830FCF76AFC002827D051
:10D810007F480078002823D168460078012808D086
:10D820007C480078012804D07B480078012800D08B
:10D83000E7E0764C20680830FEF752F800280FD059
:10D8400020680830FEF754F8002809D00822290083
:10D85000C91C20680830FFF777FF002800D0D0E00F
:10D8600007A8FFF791FF040019D10522FF2102A8A4
:10D87000FBF7EEFB02A8FFF787FF04000CD07088CF
:10D88000E070000A20713079607130886070000AA1
:10D89000A0700020E07402E0604801210170002CBB
:10D8A0003AD00198022805DB2900C91C2000801D00
:10D8B000FCF7EEFB6846007860740F21A878C0087A
:10D8C0000A000240A274A87B207468780140A1730A
:10D8D00068464078E073E07C00281DD1A8780100FC
:10D8E0004907C90FE27CFD2010404B000343E3745D
:10D8F000A8780100C9090422FB2018408B00110000
:10D9000019400143E17401200843E074A9781142F1
:10D9100002D1FE210140E174002C72D040484078D1
:10D9200000280DD004286CDB38480168083120003D
:10D93000801DFCF7D5FB002863D0A07B022860DBAC
:10D940001D22FF2109A8FBF783FB09A8318801816B
:10D950007188418131790173B97C017400210A0019
:10D960004274C181397C0A005206D20F0121514014
:10D970000322437BFC251D4013000B402B434373C4
:10D98000017C322903DB4C2902DB012200E0072263
:10D990000F21837CF0251D400B0013402B43837423
:10D9A00019401A010A4382740021C1740175417B38
:10D9B0000A00D2085207520F072A04D1C7220A4090
:10D9C00010211143417309A981B068462022FFF755
:10D9D00081FA08BC0022114607A8FFF7C5FEFF2800
:10D9E0000FD001002170A17C1D2250430D4A126806
:10D9F0001018427C8123134049007E220A401A43BA
:10DA0000427411B0F0BD00BF01E101206CCB0120D8
:10DA100002E1012008E10120FCE0012000E10120F9
:10DA200014DC012064CB012008B4024B9C4608BCE6
:10DA30006047C0463320012008B4024B9C4608BC16
:10DA40006047C04641D9002008B4024B9C4608BC40
:10DA50006047C046F1D7002008B4024B9C4608BC82
:10DA60006047C04623D9002008B4024B9C4608BC3E
:10DA70006047C0461FC00120F1B586B00078019014
:10DA80000222954903A8FBF7CBFA102303A803C889
:10DA90000A0001000220FCF72BFB001FC0B202901D
:10DAA000069800210170069801998170069800215E
:10DAB000C170069841700427069C241D0E466846D6
:10DAC000017064E01D214843844909680D18297AD2
:10DAD000687A0006000C01438148814252D0687B7D
:10DAE000C0084007400F03284CDA761CF6B20198B4
:10DAF000864247DB3800C0B216300299884241D2D4
:10DB00000698C078401C0699C870764801680831AC
:10DB10002000FCF7BDFA290020000830FCF7B8FA15
:10DB2000287A697A0906090C08432074000A60748F
:10DB30000020A074687B8207920FA2740120697B89
:10DB4000890803000B40F32111409B000C221A406E
:10DB50000A43A274697BC9084B075B0F8F211140F0
:10DB60001A01702313400B43A3740021E174697CF4
:10DB70000840E0745B480068007D2075287C607573
:10DB80001634163768460078401C694608706846A7
:10DB90000078192896DB069846703800C0B207B0A6
:10DBA000F0BDF1B584B006783000FFF745FF040002
:10DBB00000250498290001700827FFF745FF381A4F
:10DBC00004994870049886702600761C2F00022263
:10DBD000414901A8FBF724FA102301A803C80A0051
:10DBE00001000220FCF784FA001FC0B200900FE091
:10DBF0007F1C220004984019001DFBF711FA2D1913
:10DC0000EDB23000C0B2FFF727FF04002600761CFB
:10DC1000082C0EDA16204443334800680119C87AEC
:10DC2000032801D1152400E00E2400982A199042FF
:10DC3000DEDA0498C7702D1D2800C0B205B0F0BD13
:10DC40003EB50400294D21002800001DFCF720FAF4
:10DC5000207A80210140297040210840687000200E
:10DC6000009001AB6F220121FCF7F2F92800001DA2
:10DC7000FDF736FE00281AD001212800001DFCF710
:10DC800057FAFF2806D00020FFF7EEFE0020207094
:10DC900001203EBD01A92800001DFCF721FA002843
:10DCA00015D0082200212D1D2800FBF7D1F90022F4
:10DCB0000F490C480068233000786430FA239B0039
:10DCC0005843FFF7B1FE0020207001203EBDC82060
:10DCD000207001203EBD00005EDC012064CB0120ED
:10DCE000FFFF00006CCB012088CB0120A8E00120C1
:10DCF0001FC0012008B4024B9C4608BC6047C046C8
:10DD00003B78002008B4024B9C4608BC6047C046E4
:10DD1000B318002008B4024B9C4608BC6047C046BC
:10DD20000D1A002008B4024B9C4608BC6047C04650
:10DD3000F577002008B4024B9C4608BC6047C046FB
:10DD4000EF92002008B4024B9C4608BC6047C046D6
:10DD500025920020F0B583B0544E3100573168460B
:10DD6000FCF796F901273000FBF762F905002D0A50
:10DD70003D403000FBF75CF90400640A3C40300091
:10DD8000FBF756F9800A0740FFF7CCFF69463000E1
:10DD90005730FCF77DF93000FBF74AF93100444A6F
:10DDA000024028021043FBF75BF93000FBF740F913
:10DDB0003100404A024060021043FBF751F9300045
:10DDC000FBF736F931003C4A0240B8021043FBF73A
:10DDD00047F9F7BD70B59CB00600012400255F220D
:10DDE00032496846FBF71CF90C22344968465F301B
:10DDF000FBF716F906E06B2269464020FFF78AFF21
:10DE000004006D1C002C0CD0EDB2032D09DA002E9D
:10DE1000F1D16B236A4600214020FBF741F9040051
:10DE2000EFE720001CB070BD1FB56B214020FFF74D
:10DE300069FF002803D0224926A0FEF7F3FB214802
:10DE4000039021480290214801902020009000BFBB
:10DE500026A35F2215490120FFF76CFF002804D09C
:10DE6000E62189001BA0FEF7DDFB4020FBF710F93F
:10DE7000174C2068002803D10420FEF717FE20600D
:10DE8000FFF760FF002802D0FFF74CFF1FBDFFF730
:10DE900031FF002808D02068FBF7CAF8216801226A
:10DEA00002431000FBF7DCF81FBD000014DA01206C
:10DEB000FFFEFFFFFFFDFFFFFFFBFFFF80DA0120FA
:10DEC000930300004B770020FD760020B9760020F8
:10DED000F4D901206E65742F4D41432F4D4D4143C0
:10DEE0002F6D61635F7069622E6300004100000066
:10DEF00000420000080011000010006C0000180033
:10DF00005D000020005C000028005200003000107E
:10DF10000000380082010000008301000800600159
:10DF2000001000450400A4014638000900473900EC
:10DF30000900493A0009004A3B0044004B430012E3
:10DF4000004C4500090054460009005547001200E6
:10DF500058490012005A4B000900534C001200505F
:10DF60004E00120040500009004E510009004F526F
:10DF7000000900575300090059540009005E55007C
:10DF800009005F560009006F5700440008B4024BB7
:10DF90009C4608BC6047C0469516002008B4024B5A
:10DFA0009C4608BC6047C046BD2D012008B4024B0A
:10DFB0009C4608BC6047C046B588002008B4024BA8
:10DFC0009C4608BC6047C046A13E012008B4024BF5
:10DFD0009C4608BC6047C0468B3E012008B4024BFB
:10DFE0009C4608BC6047C046A18B00207CB504005D
:10DFF000FE257D4E2100491C30000830FCF748F812
:10E0000030000830FDF76CFC002814D0012000908F
:10E0100001ABA27A052108363000FFF7D7FF0500D3
:10E02000FF2D0ED06846007900280AD1002120007B
:10E03000FCF7D0FC73BDA07A002802D06B48012108
:10E040000170FF2D04D029002000FFF7C7FF73BD2A
:10E050002100C820FFF7B2FF73BDF8B517001D00FF
:10E06000FCF766F806001D207043614909680C182A
:10E07000FF2E59D00720617BC9080140042953D0E5
:10E08000012901D0022942D1012129705949096889
:10E090000978002904D0617CC90901D000212970C8
:10E0A0000699002940D1627B1100C9080840002F61
:10E0B00007D001281CD1C7201040202101436173E3
:10E0C00016E0012806D111004907C90F9007800FFB
:10E0D000FFF76CFF607BC721014018200843607385
:10E0E0002878012804D0022231004348FFF74EFF70
:10E0F0000822002115342000FAF7AAFF0820FBF7B8
:10E10000E7FF002810D00120FBF7BAFF0CE0002049
:10E110002870607BC72101401820084360730222E9
:10E1200031003548FFF732FF3000F2BDF0B583B063
:10E13000040000276846390001712B4D012620009C
:10E140002430FAF775FF40784009310001406970CA
:10E1500020002430FAF76CFF4078400628D50A22C8
:10E1600039462000401CFAF773FF24480068007805
:10E170004007400F022805D0012814D120484079DB
:10E18000012810D17A2020706878A0726772FE2171
:10E190002000FFF723FF0822394628000830FAF74D
:10E1A00057FF2E70F7BD39462000FCF713FCF7BD72
:10E1B0007C20207021001C312000401CFBF768FFF0
:10E1C0003846009001AB6A7805212000401CFFF71B
:10E1D000FDFEFFF7E3FE6878607268460079A07282
:10E1E0002000FDF795FBF7BD78E0012008E1012054
:10E1F00064CB01206CCB0120673E01207CCB012049
:10E20000CCDB012008B4024B9C4608BC6047C046EA
:10E21000B7B9002008B4024B9C4608BC6047C04612
:10E22000717C012008B4024B9C4608BC6047C04684
:10E23000E797012008B4024B9C4608BC6047C046E3
:10E240007B98012008B4024B9C4608BC6047C0463E
:10E250009797012008B4024B9C4608BC6047C04613
:10E260008998012070B586B00400FFF7F3FF0028FD
:10E2700004D1E8212000FFF7DDFF73E0644D2900A1
:10E280004C3103A8801CFBF713FF624E6846C0891F
:10E29000B04204D1EC212000FFF7CCFF62E0607BAC
:10E2A000012824D15C480078052801D0062859D1DE
:10E2B0005A4D2100491C2800801CFBF7F9FEE0782C
:10E2C0002870310004A8FBF7FBFEE37803A861780F
:10E2D0000170A17841700820029004A80190C82024
:10E2E0000090320003A92000FFF7ACFF3AE0E07A8B
:10E2F00001280ED12100491C28004E30FBF7D8FE22
:10E300002800FAF795FE2900802202431000FAF750
:10E31000A7FE414806210170FDF7D2FA2800FAF75E
:10E3200087FE0200290040201043FAF799FE2800DA
:10E330004330FBF795FEB04205D129004C314335FF
:10E340002800FBF7B5FE002000902300DB1C0246EE
:10E3500002210120FBF77CFEFFF754FF0021200083
:10E36000FFF768FF06B070BDFEB50400284E31000F
:10E3700057311030FBF78CFE082727702500AD1CA5
:10E38000089828704520305C68704520305C401C3F
:10E3900045217054FF20A870E8702000801D099965
:10E3A0003A46FAF78DFE31004E3120000E30FBF771
:10E3B0007FFE2F77250032352F70009920003330F3
:10E3C000FBF776FE4C36310020003530FBF770FE4F
:10E3D0006846007A687101A920003830FBF768FEB2
:10E3E0000A992000FFF716FF05000FD02000801DBE
:10E3F000FBF736FE0749884204D129002000FFF7C9
:10E4000019FFF7BD29002000FFF70CFFF7BD000042
:10E4100014DA0120FFFF0000F7E00120D4E0012022
:10E4200008B4024B9C4608BC6047C046D3E30020BA
:10E4300008B4024B9C4608BC6047C046F7E3002086
:10E4400070B584B004000020029001940120009077
:10E45000002305221C213D48FEF7ECF8C578017920
:10E460000906090C0D43467881780906090C0E430C
:10E47000641D2000FAF7DCFD354909682A00D2083E
:10E480000B7865246343C91889192031FAF7C8FD50
:10E49000002004B070BD00001FB5EA214220FFF744
:10E4A00031FC002805D0FF21543100BF2BA0FEF71E
:10E4B000B9F84220FAF7ECFD254CEA20FEF7F6FA0F
:10E4C000206000200390029001901320009000BF74
:10E4D0002CA31F222168491C0420FFF72BFC0028D5
:10E4E00005D0B221490000BF1CA0FEF79BF81948D7
:10E4F000039000200290184801901C200090134BBC
:10E500006522216820310520FFF714FC002804D083
:10E51000FF216C3111A0FEF785F80420FEF7C6FA42
:10E520006060FFF70FFC002802D0FFF779FF1FBDE6
:10E53000FFF77EFF002808D06068FAF779FD616870
:10E54000072202431000FAF78BFD1FBD80E4002074
:10E550003CDD0120A1E200208DE200206E65742FD9
:10E560005A69674265652F5A444F2F636F6D6D6915
:10E570007373696F6E696E675F737570706F7274B5
:10E580002E630000000000090001010009000202E2
:10E590000009000303000900040400090005050048
:10E5A000090006060009000707000900080800091D
:10E5B0000009090012000A0B0012000B0D000900EF
:10E5C0000C0E0009000D0F0012000E110009000FC3
:10E5D000120009001013005400111D000900121E42
:10E5E0000009000008B4024B9C4608BC6047C046C6
:10E5F000D12A002008B4024B9C4608BC6047C046A4
:10E600002F2A002008B4024B9C4608BC6047C04635
:10E61000C929002008B4024B9C4608BC6047C0468C
:10E62000E5290020F8B50D001700654C2620FEF7FF
:10E630003DFA206006222900FAF7F2FC0026206845
:10E6400031000177206841772068032181712068BB
:10E650000521C1712068C179C175300005E02168CC
:10E6600018313046FAF7FCFC0120002822D10322A1
:10E67000390020681430FAF7D3FC3046FFF7BAFFB0
:10E680000500ECD0FEF712FA21681831FAF7E8FC21
:10E6900020681830FAF7CCFC2A00FA21FAF7D8FCE7
:10E6A00030000328E0DA216809180A7D8A77401CC7
:10E6B000F7E701262068002E0BD11830FAF7B8FCD6
:10E6C0000028F6D00020FFF79DFF0128F1D101209E
:10E6D000F2BD16300178C1730020F2BD38B50028B4
:10E6E0006BD1374C2068050008351830FAF7A0FCCC
:10E6F00000902068007D00281DD0002D03D06946C1
:10E700002800FBF7FDFC2068017842781206120C05
:10E710001143027D0098FFF77DFF216808784A7851
:10E720001206120C1043FFF75DFF2168097D484374
:10E730000099081800902068407D00281FD028000C
:10E74000001D04D069462800001DFBF7D9FC206895
:10E750008178C2781206120C1143427D0098FFF7AF
:10E7600059FF21688878CA781206120C1043FFF707
:10E7700039FF2168497D48430099081800902068B6
:10E78000807D002817D02800083002D06946FBF7AA
:10E79000B7FC2068017942791206120C1143827D80
:10E7A0000098FFF737FF216808794A791206120CA2
:10E7B0001043FFF717FF002032BD012032BD0000DB
:10E7C0004CCF012008B4024B9C4608BC6047C046B1
:10E7D0000320012008B4024B9C4608BC6047C04699
:10E7E000F18A012008B4024B9C4608BC6047C04631
:10E7F000DDBE0120F0B585B0040003A863A10A883E
:10E800000280684600210180200032300190594882
:10E81000007800280BD158480068002807D1574DD0
:10E8200003A928004E30FBF773FC002804D0002118
:10E830002000FCF7CFF89AE02E00383668460088B2
:10E840007178B27B12010A43F0210901114301439F
:10E850006846018001272800FAF7EAFB0100C90990
:10E8600038000840012805D168460088B9030143F3
:10E87000684601802800FAF7DBFB074006D06846AF
:10E880000088802109020143684601800C20207025
:10E890008020A070B078E070B078401CB070290083
:10E8A0004E3120000E30FBF703FC29004C312000D4
:10E8B0001030FBF7FDFB68463149418021001031E3
:10E8C000801CFBF725FC002807D0C020A070290081
:10E8D000573120001030FBF7DBFB3078001DA077AC
:10E8E00069460198FBF7E4FB0198801C0021017048
:10E8F000401C029007467F1C02213800FFF76AFF88
:10E9000041007A180192A27F5118A17702990870EC
:10E9100003210198FFF75EFF0299097802001201B6
:10E920000A4302990A70C000A17F0918A1773278C2
:10E930002D1D2900019B1818FAF772FB0E48046080
:10E94000104800680321FDF76BFB0400FCF70EFC88
:10E950004006400E401C444300220B492000C009E1
:10E96000FFF730FFFF2802D10020FFF73BFF05B083
:10E97000F0BD0000F3E0012074DA012014DA012078
:10E98000FEFF000078DA0120DDBE0120FFFF00005D
:10E9900008B4024B9C4608BC6047C046BBB8002088
:10E9A00008B4024B9C4608BC6047C04683810020E7
:10E9B00008B4024B9C4608BC6047C0467B39012026
:10E9C00008B4024B9C4608BC6047C0469BE0002050
:10E9D00008B4024B9C4608BC6047C0468D9A002094
:10E9E00008B4024B9C4608BC6047C04691F000202A
:10E9F00008B4024B9C4608BC6047C046159E0020E8
:10EA000008B4024B9C4608BC6047C0469DFC0020F1
:10EA100008B4024B9C4608BC6047C046059D0020D8
:10EA200008B4024B9C4608BC6047C046C193002016
:10EA300008B4024B9C4608BC6047C046339800208F
:10EA400008B4024B9C4608BC6047C046879B002028
:10EA500008B4024B9C4608BC6047C046E17B0020DE
:10EA600008B4024B9C4608BC6047C046BD9B0020D2
:10EA7000F8B507005948002101705948017008464F
:10EA8000FFF7AEFF574D2E78002E01D1FFF7D0FFD4
:10EA9000554C207801281BD1012E19D10020287057
:10EAA000207052480721417051480178417001217E
:10EAB00001700021B020FBF795FF002802D0002153
:10EAC000FFF786FFFFF79CFF3800FFF7A1FF17E075
:10EAD000464848490978022907D106214170732028
:10EAE00038703800FEF722FC0AE0072141704048E8
:10EAF000017841700121017079783800FFF768FFD3
